:1000000006C1000016C1000014C1000012C10000AA
:1000100010C100000EC100000CC100000AC10000A8
:1000200008C1000006C1000004C1000002C10000B8
:1000300000C10000FEC00000FCC00000FAC00000CB
:10004000F8C00000F6C00000F4C00000F2C00000DC
:10005000F0C00000EEC00000ECC00000BEC1000017
:10006000E8C00000E6C00000E4C00000E2C00000FC
:10007000E0C00000DEC00000DCC00000DAC000000C
:10008000D8C00000D6C00000D4C00000D2C000001C
:10009000D0C00000CEC00000CCC00000CAC000002C
:1000A000C8C00000C6C00000C4C00000C2C000003C
:1000B000C0C00000BEC00000BCC00000BAC000004C
:1000C000B8C00000B6C00000B4C00000B2C000005C
:1000D000B0C00000AEC00000ACC00000AAC000006C
:1000E000A8C0000038013B012A012E013401720131
:1000F0003F01430149014D01510157015B015F017E
:100100007201650169016D0100000A0B02090C0D05
:100110000E080703040100000000000000000000BA
:1001200000000000000000000000000000000000CF
:10013000000000001211100000000000000000008C
:1001400000000000000000000000000000000102AC
:1001500010202008081020401020408002010201D9
:100160000804020101020408102040808040201091
:1001700008040201800402018040201008040201EA
:100180000804020101020408102040800102040852
:10019000102040800505050507050808080802022B
:1001A00002020A0A08080404040401010101010111
:1001B00001010303030303030303040707070C0CF4
:1001C0000C0C0C0C0C0C02020202060606060606BB
:1001D00006060B0B0B0B0B0B0B0B00002200250074
:1001E00028002B002E003100340002010000050120
:1001F00008010B0100002100240027002A002D0027
:100200003000330001010000040107010A0111243C
:100210001FBECFEFD1E2DEBFCDBF00E00CBF22E0BA
:10022000A0E0B2E001C01D92A930B207E1F7CAD048
:1002300086C1E6CE61E08DE056C061E08DE08CC005
:1002400090E0FC013197E231F10508F04BC0EE5827
:10025000FF4F6FC1809180008F7703C08091800035
:100260008F7D80938000089580918000877FF9CFF3
:1002700084B58F7702C084B58F7D84BD0895809149
:10028000B0008F7703C08091B0008F7D8093B00065
:100290000895809190008F7707C0809190008F7DA6
:1002A00003C080919000877F809390000895809193
:1002B000A0008F7707C08091A0008F7D03C0809140
:1002C000A000877F8093A0000895809120018F7700
:1002D00007C0809120018F7D03C080912001877F1E
:1002E000809320010895CF93DF9390E0FC01E25BBF
:1002F000FE4F2491FC01EC56FE4F8491882349F176
:1003000090E0880F991FFC01EC50FE4FA591B4912D
:1003100086529E4FFC01C591D4919FB7611108C0D0
:10032000F8948C91209582238C93888182230AC033
:10033000623051F4F8948C91322F309583238C9352
:100340008881822B888304C0F8948C91822B8C93B3
:100350009FBFDF91CF9108950F931F93CF93DF93AA
:100360001F92CDB7DEB7282F30E0F901E85FFE4FCE
:100370008491F901E25BFE4F1491F901EC56FE4FB6
:1003800004910023C1F0882319F0698359DF698142
:10039000E02FF0E0EE0FFF1FE652FE4FA591B49163
:1003A0009FB7F8948C91611103C01095812301C00F
:1003B000812B8C939FBF0F90DF91CF911F910F9155
:1003C0000895089554D0FDDF35DFC0E0D0E035DF7B
:1003D0002097E9F30E940000FACF1F920F920FB608
:1003E0000F9211242F933F938F939F93AF93BF93BB
:1003F0008091010290910202A0910302B091040247
:100400003091000223E0230F2D3720F40196A11D27
:10041000B11D05C026E8230F0296A11DB11D209332
:1004200000028093010290930202A0930302B09312
:1004300004028091050290910602A0910702B091FA
:1004400008020196A11DB11D80930502909306023A
:10045000A0930702B0930802BF91AF919F918F9133
:100460003F912F910F900FBE0F901F901895789489
:1004700084B5826084BD84B5816084BD85B58260A9
:1004800085BD85B5816085BDEEE6F0E08081816047
:100490008083E1E8F0E01082808182608083808147
:1004A00081608083E0E8F0E0808181608083E1EB1F
:1004B000F0E0808184608083E0EBF0E08081816007
:1004C0008083E1E9F0E080818260808380818160C7
:1004D0008083E0E9F0E0808181608083E1EAF0E000
:1004E000808182608083808181608083E0EAF0E0A7
:1004F000808181608083E1E2F1E08081826080839D
:10050000808181608083E0E2F1E08081816080838E
:10051000EAE7F0E08081846080838081826080836C
:100520008081816080838081806880831092C10097
:100530000895EE0FFF1F0590F491E02D1994F894A3
:02054000FFCFEB
:00000001FF
