:100000000C9465000C948D000C948D000C948D0064
:100010000C948D000C948D000C948D000C942B018D
:100020000C948D000C948D000C948D000C94E001C8
:100030000C948D000C948D000C948D000C948D000C
:100040000C94D4030C948D000C9472050C94A405AC
:100050000C948D000C948D000C948D000C948D00EC
:100060000C948D000C948D0000000008000201002B
:100070000003040700000000000000000102040863
:100080001020408001020408102001020408102002
:10009000040404040404040402020202020203032E
:1000A00003030303000000002300260029000000D2
:1000B0000000250028002B0000000000240027007D
:1000C0002A00C300E300D405E70011241FBECFEFD0
:1000D000D8E0DEBFCDBF11E0A0E0B1E0E6E0F0E1A6
:1000E00002C005900D92AC33B107D9F723E0ACE321
:1000F000B1E001C01D92AE39B207E1F710E0C8ECE3
:10010000D0E004C02297FE010E94F207C23CD10752
:10011000C9F70E946A070C94F6070C9400006091DE
:100120003E0170913F0183E491E00E9436036091AB
:100130003C0170913D0180E491E00C94360360E055
:1001400070E083E491E00E946F0360E070E080E47F
:1001500091E00E946F0360ED77E080E090E00E9404
:100160004D0464EB70E083E491E00E946F0364EB64
:1001700070E080E491E00E946F0360ED77E080E042
:1001800090E00C944D0463E086E491E00E94150138
:1001900083E491E00E949C0280E491E00E949C0232
:1001A00086E491E00E94250190E090933F018093C6
:1001B0003E0186E491E00E94280190E090933D0189
:1001C00080933C0108958AE491E00C94EB008AE46A
:1001D00091E00C94140121E030E0FC013183208394
:1001E000EE5FFE4F108211821282138234961082CB
:1001F00011821282138234961082319610823196C7
:1002000010821182128213823496118210823296E9
:1002100010823196108211821282138234961082DB
:1002200011821282138208950895DC01E62FF0E016
:10023000EE0FFF1FE65FFE4F80818C938181119648
:100240008C93119712966C930895FC018081089508
:10025000FC01818108951F920F920FB60F92112415
:100260000F931F932F933F934F935F936F937F93BE
:100270008F939F93AF93BF93CF93EF93FF9382E0BE
:100280000E944805C82F20916B0230916C022F5FAD
:100290003F4F30936C0220936B028091D1028436E1
:1002A00018F085E08093660290916602933079F0B1
:1002B00018F4923039F070C0943011F1953009F48F
:1002C0004AC06AC0C11168C01092D10229C0C130B1
:1002D00009F062C0E091D10281E08E0F8093D102DB
:1002E000F0E080916B0290916C02EB59FD4F80879A
:1002F00010926C0210926B0284E0809366024CC0F4
:10030000C11114C0E091D10281E08E0F8093D1021F
:10031000F0E080916B0290916C02EB59FD4F808769
:1003200010926C0210926B0283E0E7CF80916B0217
:1003300090916C028536910578F185E08093660294
:100340000E941E04609367027093680280936902A2
:1003500090936A0221C00E941E04009167021091CE
:1003600068022091690230916A02601B710B820B56
:10037000930B693C71058105910540F01092D10203
:1003800010926C0210926B0282E0B7CFC11104C0D0
:1003900010926C0210926B02FF91EF91CF91BF917E
:1003A000AF919F918F917F916F915F914F913F910D
:1003B0002F911F910F910F900FBE0F901F901895C6
:1003C0001F920F920FB60F9211242F933F934F93CA
:1003D0005F936F937F938F939F93AF93BF93EF93AD
:1003E000FF938091D30287FF05C010928500109281
:1003F00084001AC02091D302332727FD30958091C5
:10040000D20290E0281739077CF48091D302992713
:1004100087FD9095FC01EE0FFF1FE80FF91FEC52CE
:10042000FD4F808187FD15C08091D3028F5F80933F
:10043000D3022091D302332727FD30958091D20239
:1004400090E028173907BCF48091D3028C305CF11E
:1004500012C08091D302992787FD9095FC01EE0F81
:10046000FF1FE80FF91FEC52FD4F808160E08F778E
:100470000E941205D9CF8091840090918500049646
:1004800080349C4918F480E49CE905C08091840084
:1004900090918500049690938900809388008FEF57
:1004A0008093D30238C020918400309185008091E0
:1004B000D302992787FD9095FC01EE0FFF1FE80FEF
:1004C000F91FEC52FD4F81819281820F931F90930F
:1004D0008900809388008091D302992787FD9095A9
:1004E000FC01EE0FFF1FE80FF91FEC52FD4F80815A
:1004F00087FF11C08091D302992787FD9095FC0159
:10050000EE0FFF1FE80FF91FEC52FD4F808161E0F5
:100510008F770E941205FF91EF91BF91AF919F914C
:100520008F917F916F915F914F913F912F910F909C
:100530000FBE0F901F9018952091D2022C30A0F47E
:1005400031E0320F3093D202FC012083822F90E001
:10055000FC01EE0FFF1FE80FF91FEC52FD4F88EB77
:100560009BE09283818308952FEFFC0120830895FF
:10057000DF92EF92FF920F931F93CF93DF93EC01E3
:10058000D62E7A01890188818C3008F066C061E03E
:100590008D2D0E94D9048881A82FB0E0FD01EE0FB7
:1005A000FF1FEA0FFB1FEC52FD4F2D2D2F7790817F
:1005B0009078922B908360E272E06E197F0977FF4A
:1005C00002C06D5F7F4F75956795759567956983D7
:1005D00040E659E0401B510B57FF02C04D5F5F4F93
:1005E00055954795559547954A836CE00E94890734
:1005F0009CE0899FB001112420E030E0A901460F62
:10060000571FFA01EE0FFF1FE40FF51FEC52FD4FCD
:10061000908197FD16C02F5F3F4F2C30310571F749
:1006200081110FC01092800082E0809381001092AF
:10063000850010928400B19A80916F00826080934F
:100640006F00888190E0FC01EE0FFF1FE80FF91F9B
:10065000EC52FD4F8081806880838881DF91CF914B
:100660001F910F91FF90EF90DF90089520E639E001
:1006700040E252E00C94B802FC0180818C3070F5AD
:10068000918128E830E0291B310997FD3395220F2D
:10069000331F220F331F621773077CF0928128E506
:1006A00032E0291B310997FD3395220F331F220FAA
:1006B000331F621773070CF49B0122503109220F7C
:1006C000331F4FB7F89490E0FC01EE0FFF1FE80FC7
:1006D000F91FEC52FD4F328321834FBF08954F9293
:1006E0005F926F927F92AF92BF92CF92DF92EF9222
:1006F000FF920F931F93CF93DF93EC01603282E060
:1007000078070CF040C077FD06C0653B71052CF002
:1007100064EB70E002C060E070E0898128E830E0BE
:10072000281B310987FD3395220F331F220F331FFA
:100730005901CC24B7FCC094DC2C882777FD809528
:10074000982F2A8148E552E0421B510927FD539515
:10075000440F551F440F551F2A01662457FC60940F
:10076000762C7F926F925F924F9214EBE12EF12CD8
:1007700000E010E020E030E0A9010E9422070F9085
:100780000F900F900F90CE01DF91CF911F910F919D
:10079000FF90EF90DF90CF90BF90AF907F906F90E1
:1007A0005F904F900C943C031F920F920FB60F92E4
:1007B00011242F933F938F939F93AF93BF93809177
:1007C000F9029091FA02A091FB02B091FC023091E3
:1007D000F80223E0230F2D3720F40196A11DB11D4F
:1007E00005C026E8230F0296A11DB11D2093F80233
:1007F0008093F9029093FA02A093FB02B093FC025B
:100800008091FD029091FE02A091FF02B091000341
:100810000196A11DB11D8093FD029093FE02A0934D
:10082000FF02B0930003BF91AF919F918F913F91D1
:100830002F910F900FBE0F901F9018952FB7F8941F
:100840006091F9027091FA028091FB029091FC0292
:100850002FBF08953FB7F8948091FD029091FE025A
:10086000A091FF02B091000326B5A89B05C02F3FC1
:1008700019F00196A11DB11D3FBF6627782F892F62
:100880009A2F620F711D811D911D42E0660F771F27
:10089000881F991F4A95D1F70895CF92DF92EF9262
:1008A000FF92CF93DF936B017C010E942A04EB013E
:1008B000C114D104E104F10489F00E9471050E9481
:1008C0002A046C1B7D0B683E734090F381E0C81ACC
:1008D000D108E108F108C851DC4FEACFDF91CF9190
:1008E000FF90EF90DF90CF900895789484B5826068
:1008F00084BD84B5816084BD85B5826085BD85B5C4
:10090000816085BDEEE6F0E0808181608083E1E872
:10091000F0E01082808182608083808181608083AA
:10092000E0E8F0E0808181608083E1EBF0E08081AD
:1009300084608083E0EBF0E0808181608083EAE77F
:10094000F0E0808184608083808182608083808108
:10095000816080838081806880831092C1000895C7
:10096000833081F028F4813099F08230A1F008952D
:100970008730A9F08830B9F08430D1F480918000BC
:100980008F7D03C0809180008F77809380000895D1
:1009900084B58F7702C084B58F7D84BD0895809122
:1009A000B0008F7703C08091B0008F7D8093B0003E
:1009B0000895CF93DF9390E0FC01E458FF4F24911A
:1009C000FC01E057FF4F8491882349F190E0880FA4
:1009D000991FFC01E854FF4FA591B49182559F4F98
:1009E000FC01C591D4919FB7611108C0F8948C9116
:1009F000209582238C93888182230AC0623051F42F
:100A0000F8948C91322F309583238C938881822B9C
:100A1000888304C0F8948C91822B8C939FBFDF91C4
:100A2000CF9108950F931F93CF93DF931F92CDB76C
:100A3000DEB7282F30E0F901E859FF4F8491F90122
:100A4000E458FF4F1491F901E057FF4F0491002340
:100A5000C9F0882321F069830E94B0046981E02FE6
:100A6000F0E0EE0FFF1FE255FF4FA591B4919FB745
:100A7000F8948C91611103C01095812301C0812BE2
:100A80008C939FBF0F90DF91CF911F910F9108958D
:100A9000CF93DF93282F30E0F901E859FF4F84917D
:100AA000F901E458FF4FD491F901E057FF4FC49189
:100AB000CC2391F081110E94B004EC2FF0E0EE0FF6
:100AC000FF1FEC55FF4FA591B4912C912D2381E090
:100AD00090E021F480E002C080E090E0DF91CF91CF
:100AE000089508951F920F920FB60F9211242F931D
:100AF0008F939F93EF93FF93E0911103F091120373
:100B00008081E0911703F091180382FD12C090815B
:100B100080911A038F5F8F7320911B03821751F00E
:100B2000E0911A03F0E0EF5FFC4F958F80931A037A
:100B300001C08081FF91EF919F918F912F910F9034
:100B40000FBE0F901F9018951F920F920FB60F9225
:100B500011242F933F934F935F936F937F938F93C2
:100B60009F93AF93BF93EF93FF9381E093E00E9435
:100B70007A06FF91EF91BF91AF919F918F917F91F5
:100B80006F915F914F913F912F910F900FBE0F90FA
:100B90001F90189581E093E00E943F0621E0892B89
:100BA00009F420E0822F08951092040310920303A9
:100BB00088EE93E0A0E0B0E08093050390930603F5
:100BC000A0930703B093080380E391E0909302039E
:100BD0008093010385EC90E090930E0380930D03C6
:100BE00084EC90E09093100380930F0380EC90E0EE
:100BF000909312038093110381EC90E0909314037F
:100C00008093130382EC90E0909316038093150376
:100C100086EC90E0909318038093170310921A03C8
:100C200010921B0310921C0310921D030895CF9283
:100C3000DF92EF92FF920F931F93CF93DF936C019C
:100C40007A01EB01E60EF71E00E010E0CE15DF059D
:100C500061F06991D601ED91FC910190F081E02D58
:100C6000C6010995080F191FF1CFC801DF91CF9177
:100C70001F910F91FF90EF90DF90CF900895FC01AE
:100C8000818D228D90E0805C9F4F821B91098F7334
:100C900099270895FC01918D828D981731F0828DEE
:100CA000E80FF11D858D90E008958FEF9FEF089577
:100CB000FC01918D828D981761F0828DDF01A80F64
:100CC000B11D5D968C91928D9F5F9F73928F90E086
:100CD00008958FEF9FEF08958AEC95E0892B49F0F6
:100CE00080E090E0892B29F00E94CA0581110C94C4
:100CF00000000895FC01848DDF01A80FB11DA35AE7
:100D0000BF4F2C91848D90E001968F739927848F2B
:100D1000A689B7892C93A089B1898C9180648C9322
:100D2000938D848D981306C00288F389E02D80810D
:100D30008F7D80830895CF93DF93EC01888D882386
:100D4000C9F0EA89FB89808185FD05C0A889B98938
:100D50008C9186FD0FC00FB607FCF5CF808185FF13
:100D6000F2CFA889B9898C9185FFEDCFCE010E9481
:100D70007A06E7CFDF91CF910895CF92DF92FF926D
:100D80000F931F93CF93DF931F92CDB7DEB76C0104
:100D900081E0D60158968C9358975B969C915B970F
:100DA0005C968C915C97981307C05096ED91FC91DE
:100DB0005197808185FD2EC0F601038D10E00F5FF5
:100DC0001F4F0F731127F02EF601848DF81211C0FA
:100DD0000FB607FCF9CFD6015096ED91FC915197D3
:100DE000808185FFF1CFC60169830E947A066981FF
:100DF000EBCF838DE80FF11DE35AFF4F6083D601DF
:100E00005B960C935B975296ED91FC915397808182
:100E100080620CC0D6015696ED91FC915797608385
:100E20005096ED91FC91519780818064808381E0A0
:100E300090E00F90DF91CF911F910F91FF90DF9085
:100E4000CF9008954F925F926F927F92AF92BF9230
:100E5000CF92DF92EF92FF920F931F93CF93DF9386
:100E6000CDB7DEB729013A01621B730B840B950BDA
:100E700029893A894B895C892A193B094C095D0902
:100E8000298B3A8B4B8B5C8B9B01AC0169897A89EE
:100E90008B899C890E947907E418F50806091709CF
:100EA000A80197010E94B7072A0D3B1D4C1D5D1D2F
:100EB000CA01B901DF91CF911F910F91FF90EF907F
:100EC000DF90CF90BF90AF907F906F905F904F90EA
:100ED000089508950E9475040E9469070E948F007A
:100EE000CCE6D6E00E949F002097E1F30E946C06BA
:100EF000F9CFDB018F939F930E94E507BF91AF91DC
:100F0000A29F800D911DA39F900DB29F900D112463
:100F10000895991B79E004C0991F961708F0961B55
:100F2000881F7A95C9F780950895A1E21A2EAA1B09
:100F3000BB1BFD010DC0AA1FBB1FEE1FFF1FA21789
:100F4000B307E407F50720F0A21BB30BE40BF50B86
:100F5000661F771F881F991F1A9469F7609570950F
:100F6000809590959B01AC01BD01CF010895052EA0
:100F700097FB1EF400940E94CE0757FD07D00E94F5
:100F8000950707FC03D04EF40C94CE07509540957E
:100F9000309521953F4F4F4F5F4F08959095809525
:100FA000709561957F4F8F4F9F4F0895A29FB0011D
:100FB000B39FC001A39F700D811D1124911DB29F8D
:100FC000700D811D1124911D08950E94D607A59FC3
:100FD000900DB49F900DA49F800D911D1124089534
:100FE000EE0FFF1F0590F491E02D099410E0C8EC7E
:100FF000D0E004C0FE010E94F2072296CA3CD1074D
:06100000C9F7F894FFCFD0
:1010060000009E0380000100000000000B0A030997
:101016000C0D080200001011140F150E060705042A
:1010260000000000000000000000000000000000BA
:0C103600BD0617063F0658064A069B063A
:00000001FF
